{"abi":[{"type":"function","name":"MAX_BYTES_PER_BLOB","inputs":[],"outputs":[{"name":"","type":"uint256","internalType":"uint256"}],"stateMutability":"view"},{"type":"function","name":"SECURITY_DELAY_AFTER_PROVEN","inputs":[],"outputs":[{"name":"","type":"uint256","internalType":"uint256"}],"stateMutability":"view"},{"type":"function","name":"acceptOwnership","inputs":[],"outputs":[],"stateMutability":"nonpayable"},{"type":"function","name":"addressManager","inputs":[],"outputs":[{"name":"","type":"address","internalType":"address"}],"stateMutability":"view"},{"type":"function","name":"getConfig","inputs":[],"outputs":[{"name":"","type":"tuple","internalType":"struct TaikoData.Config","components":[{"name":"chainId","type":"uint64","internalType":"uint64"},{"name":"blockMaxGasLimit","type":"uint32","internalType":"uint32"},{"name":"blockMaxTxListBytes","type":"uint24","internalType":"uint24"}]}],"stateMutability":"view"},{"type":"function","name":"impl","inputs":[],"outputs":[{"name":"","type":"address","internalType":"address"}],"stateMutability":"view"},{"type":"function","name":"inNonReentrant","inputs":[],"outputs":[{"name":"","type":"bool","internalType":"bool"}],"stateMutability":"view"},{"type":"function","name":"init","inputs":[{"name":"_owner","type":"address","internalType":"address"},{"name":"_addressManager","type":"address","internalType":"address"},{"name":"_genesisBlockHash","type":"bytes32","internalType":"bytes32"}],"outputs":[],"stateMutability":"nonpayable"},{"type":"function","name":"isConfigValid","inputs":[{"name":"config","type":"tuple","internalType":"struct TaikoData.Config","components":[{"name":"chainId","type":"uint64","internalType":"uint64"},{"name":"blockMaxGasLimit","type":"uint32","internalType":"uint32"},{"name":"blockMaxTxListBytes","type":"uint24","internalType":"uint24"}]}],"outputs":[{"name":"","type":"bool","internalType":"bool"}],"stateMutability":"pure"},{"type":"function","name":"lastUnpausedAt","inputs":[],"outputs":[{"name":"","type":"uint64","internalType":"uint64"}],"stateMutability":"view"},{"type":"function","name":"owner","inputs":[],"outputs":[{"name":"","type":"address","internalType":"address"}],"stateMutability":"view"},{"type":"function","name":"pause","inputs":[],"outputs":[],"stateMutability":"nonpayable"},{"type":"function","name":"paused","inputs":[],"outputs":[{"name":"","type":"bool","internalType":"bool"}],"stateMutability":"view"},{"type":"function","name":"pendingOwner","inputs":[],"outputs":[{"name":"","type":"address","internalType":"address"}],"stateMutability":"view"},{"type":"function","name":"proposeBlock","inputs":[{"name":"data","type":"bytes[]","internalType":"bytes[]"},{"name":"txLists","type":"bytes[]","internalType":"bytes[]"}],"outputs":[{"name":"_blocks","type":"tuple[]","internalType":"struct TaikoData.BlockMetadata[]","components":[{"name":"blockHash","type":"bytes32","internalType":"bytes32"},{"name":"parentBlockHash","type":"bytes32","internalType":"bytes32"},{"name":"parentMetaHash","type":"bytes32","internalType":"bytes32"},{"name":"l1Hash","type":"bytes32","internalType":"bytes32"},{"name":"difficulty","type":"uint256","internalType":"uint256"},{"name":"blobHash","type":"bytes32","internalType":"bytes32"},{"name":"extraData","type":"bytes32","internalType":"bytes32"},{"name":"coinbase","type":"address","internalType":"address"},{"name":"l2BlockNumber","type":"uint64","internalType":"uint64"},{"name":"gasLimit","type":"uint32","internalType":"uint32"},{"name":"l1StateBlockNumber","type":"uint32","internalType":"uint32"},{"name":"timestamp","type":"uint64","internalType":"uint64"},{"name":"txListByteOffset","type":"uint24","internalType":"uint24"},{"name":"txListByteSize","type":"uint24","internalType":"uint24"},{"name":"blobUsed","type":"bool","internalType":"bool"}]}],"stateMutability":"payable"},{"type":"function","name":"proxiableUUID","inputs":[],"outputs":[{"name":"","type":"bytes32","internalType":"bytes32"}],"stateMutability":"view"},{"type":"function","name":"renounceOwnership","inputs":[],"outputs":[],"stateMutability":"nonpayable"},{"type":"function","name":"resolve","inputs":[{"name":"_chainId","type":"uint64","internalType":"uint64"},{"name":"_name","type":"bytes32","internalType":"bytes32"},{"name":"_allowZeroAddress","type":"bool","internalType":"bool"}],"outputs":[{"name":"","type":"address","internalType":"address payable"}],"stateMutability":"view"},{"type":"function","name":"resolve","inputs":[{"name":"_name","type":"bytes32","internalType":"bytes32"},{"name":"_allowZeroAddress","type":"bool","internalType":"bool"}],"outputs":[{"name":"","type":"address","internalType":"address payable"}],"stateMutability":"view"},{"type":"function","name":"state","inputs":[],"outputs":[{"name":"genesisHeight","type":"uint64","internalType":"uint64"},{"name":"genesisTimestamp","type":"uint64","internalType":"uint64"},{"name":"numBlocks","type":"uint64","internalType":"uint64"},{"name":"lastVerifiedBlockId","type":"uint64","internalType":"uint64"},{"name":"provingPaused","type":"bool","internalType":"bool"},{"name":"lastUnpausedAt","type":"uint64","internalType":"uint64"}],"stateMutability":"view"},{"type":"function","name":"transferOwnership","inputs":[{"name":"newOwner","type":"address","internalType":"address"}],"outputs":[],"stateMutability":"nonpayable"},{"type":"function","name":"unpause","inputs":[],"outputs":[],"stateMutability":"nonpayable"},{"type":"function","name":"upgradeTo","inputs":[{"name":"newImplementation","type":"address","internalType":"address"}],"outputs":[],"stateMutability":"nonpayable"},{"type":"function","name":"upgradeToAndCall","inputs":[{"name":"newImplementation","type":"address","internalType":"address"},{"name":"data","type":"bytes","internalType":"bytes"}],"outputs":[],"stateMutability":"payable"},{"type":"event","name":"AdminChanged","inputs":[{"name":"previousAdmin","type":"address","indexed":false,"internalType":"address"},{"name":"newAdmin","type":"address","indexed":false,"internalType":"address"}],"anonymous":false},{"type":"event","name":"BeaconUpgraded","inputs":[{"name":"beacon","type":"address","indexed":true,"internalType":"address"}],"anonymous":false},{"type":"event","name":"BlockProposed","inputs":[{"name":"blockId","type":"uint256","indexed":true,"internalType":"uint256"},{"name":"meta","type":"tuple","indexed":false,"internalType":"struct TaikoData.BlockMetadata","components":[{"name":"blockHash","type":"bytes32","internalType":"bytes32"},{"name":"parentBlockHash","type":"bytes32","internalType":"bytes32"},{"name":"parentMetaHash","type":"bytes32","internalType":"bytes32"},{"name":"l1Hash","type":"bytes32","internalType":"bytes32"},{"name":"difficulty","type":"uint256","internalType":"uint256"},{"name":"blobHash","type":"bytes32","internalType":"bytes32"},{"name":"extraData","type":"bytes32","internalType":"bytes32"},{"name":"coinbase","type":"address","internalType":"address"},{"name":"l2BlockNumber","type":"uint64","internalType":"uint64"},{"name":"gasLimit","type":"uint32","internalType":"uint32"},{"name":"l1StateBlockNumber","type":"uint32","internalType":"uint32"},{"name":"timestamp","type":"uint64","internalType":"uint64"},{"name":"txListByteOffset","type":"uint24","internalType":"uint24"},{"name":"txListByteSize","type":"uint24","internalType":"uint24"},{"name":"blobUsed","type":"bool","internalType":"bool"}]},{"name":"txList","type":"bytes","indexed":false,"internalType":"bytes"}],"anonymous":false},{"type":"event","name":"BlockVerified","inputs":[{"name":"blockId","type":"uint256","indexed":true,"internalType":"uint256"},{"name":"blockHash","type":"bytes32","indexed":false,"internalType":"bytes32"}],"anonymous":false},{"type":"event","name":"Initialized","inputs":[{"name":"version","type":"uint8","indexed":false,"internalType":"uint8"}],"anonymous":false},{"type":"event","name":"OwnershipTransferStarted","inputs":[{"name":"previousOwner","type":"address","indexed":true,"internalType":"address"},{"name":"newOwner","type":"address","indexed":true,"internalType":"address"}],"anonymous":false},{"type":"event","name":"OwnershipTransferred","inputs":[{"name":"previousOwner","type":"address","indexed":true,"internalType":"address"},{"name":"newOwner","type":"address","indexed":true,"internalType":"address"}],"anonymous":false},{"type":"event","name":"Paused","inputs":[{"name":"account","type":"address","indexed":false,"internalType":"address"}],"anonymous":false},{"type":"event","name":"ProvingPaused","inputs":[{"name":"paused","type":"bool","indexed":false,"internalType":"bool"}],"anonymous":false},{"type":"event","name":"TransitionProved","inputs":[{"name":"blockId","type":"uint256","indexed":true,"internalType":"uint256"},{"name":"tran","type":"tuple","indexed":false,"internalType":"struct TaikoData.Transition","components":[{"name":"parentBlockHash","type":"bytes32","internalType":"bytes32"},{"name":"blockHash","type":"bytes32","internalType":"bytes32"}]},{"name":"prover","type":"address","indexed":false,"internalType":"address"}],"anonymous":false},{"type":"event","name":"Unpaused","inputs":[{"name":"account","type":"address","indexed":false,"internalType":"address"}],"anonymous":false},{"type":"event","name":"Upgraded","inputs":[{"name":"implementation","type":"address","indexed":true,"internalType":"address"}],"anonymous":false},{"type":"error","name":"FUNC_NOT_IMPLEMENTED","inputs":[]},{"type":"error","name":"INVALID_PAUSE_STATUS","inputs":[]},{"type":"error","name":"L1_ALREADY_CONTESTED","inputs":[]},{"type":"error","name":"L1_ALREADY_PROVED","inputs":[]},{"type":"error","name":"L1_ASSIGNED_PROVER_NOT_ALLOWED","inputs":[]},{"type":"error","name":"L1_BLOB_FOR_DA_DISABLED","inputs":[]},{"type":"error","name":"L1_BLOB_NOT_FOUND","inputs":[]},{"type":"error","name":"L1_BLOB_NOT_REUSEABLE","inputs":[]},{"type":"error","name":"L1_BLOCK_MISMATCH","inputs":[]},{"type":"error","name":"L1_INCORRECT_BLOCK","inputs":[]},{"type":"error","name":"L1_INSUFFICIENT_TOKEN","inputs":[]},{"type":"error","name":"L1_INVALID_ADDRESS","inputs":[]},{"type":"error","name":"L1_INVALID_AMOUNT","inputs":[]},{"type":"error","name":"L1_INVALID_BLOCK_ID","inputs":[]},{"type":"error","name":"L1_INVALID_CONFIG","inputs":[]},{"type":"error","name":"L1_INVALID_ETH_DEPOSIT","inputs":[]},{"type":"error","name":"L1_INVALID_L1_STATE_BLOCK","inputs":[]},{"type":"error","name":"L1_INVALID_OR_DUPLICATE_VERIFIER","inputs":[]},{"type":"error","name":"L1_INVALID_PARAM","inputs":[]},{"type":"error","name":"L1_INVALID_PAUSE_STATUS","inputs":[]},{"type":"error","name":"L1_INVALID_PROOF","inputs":[]},{"type":"error","name":"L1_INVALID_PROPOSER","inputs":[]},{"type":"error","name":"L1_INVALID_PROVER","inputs":[]},{"type":"error","name":"L1_INVALID_TIER","inputs":[]},{"type":"error","name":"L1_INVALID_TIMESTAMP","inputs":[]},{"type":"error","name":"L1_INVALID_TRANSITION","inputs":[]},{"type":"error","name":"L1_LIVENESS_BOND_NOT_RECEIVED","inputs":[]},{"type":"error","name":"L1_NOT_ASSIGNED_PROVER","inputs":[]},{"type":"error","name":"L1_PROPOSER_NOT_EOA","inputs":[]},{"type":"error","name":"L1_PROVING_PAUSED","inputs":[]},{"type":"error","name":"L1_RECEIVE_DISABLED","inputs":[]},{"type":"error","name":"L1_TOO_MANY_BLOCKS","inputs":[]},{"type":"error","name":"L1_TOO_MANY_TIERS","inputs":[]},{"type":"error","name":"L1_TRANSITION_ID_ZERO","inputs":[]},{"type":"error","name":"L1_TRANSITION_NOT_FOUND","inputs":[]},{"type":"error","name":"L1_TXLIST_OFFSET_SIZE","inputs":[]},{"type":"error","name":"L1_TXLIST_TOO_LARGE","inputs":[]},{"type":"error","name":"L1_UNAUTHORIZED","inputs":[]},{"type":"error","name":"L1_UNEXPECTED_PARENT","inputs":[]},{"type":"error","name":"L1_UNEXPECTED_TRANSITION_ID","inputs":[]},{"type":"error","name":"L1_UNEXPECTED_TRANSITION_TIER","inputs":[]},{"type":"error","name":"REENTRANT_CALL","inputs":[]},{"type":"error","name":"RESOLVER_DENIED","inputs":[]},{"type":"error","name":"RESOLVER_INVALID_MANAGER","inputs":[]},{"type":"error","name":"RESOLVER_UNEXPECTED_CHAINID","inputs":[]},{"type":"error","name":"RESOLVER_ZERO_ADDR","inputs":[{"name":"chainId","type":"uint64","internalType":"uint64"},{"name":"name","type":"bytes32","internalType":"bytes32"}]},{"type":"error","name":"ZERO_ADDRESS","inputs":[]},{"type":"error","name":"ZERO_VALUE","inputs":[]}],"bytecode":{"object":"0x60a06040523060805234801562000014575f80fd5b506200001f6200002f565b620000296200002f565b620000ed565b5f54610100900460ff16156200009b5760405162461bcd60e51b815260206004820152602760248201527f496e697469616c697a61626c653a20636f6e747261637420697320696e697469604482015266616c697a696e6760c81b606482015260840160405180910390fd5b5f5460ff90811614620000eb575f805460ff191660ff9081179091556040519081527f7f26b83ff96e1f2b6a682f133852f6798a09c465da95921460cefb38474024989060200160405180910390a15b565b608051612311620001225f395f8181610792015281816107d201528181610881015281816108c1015261093c01526123115ff3fe608060405260043610610147575f3560e01c806372b6347b116100b3578063a86f9d9e1161006d578063a86f9d9e1461034a578063c19d93fb14610369578063c3f909d4146103fb578063e07baba614610445578063e30c397814610482578063f2fde38b1461049f575f80fd5b806372b6347b146102bb57806379ba5097146102db57806381e3925f146102ef5780638456cb59146103055780638abf6077146103195780638da5cb5b1461032d575f80fd5b80633f4ba83a116101045780633f4ba83a146102295780634f1ef2861461023d57806352d1902d146102505780635c975abb146102725780636b5ad7e014610292578063715018a6146102a7575f80fd5b806310f3ab1b1461014b5780633075db561461017f578063347258aa146101935780633659cfe6146101b45780633ab76e9f146101d35780633eb6b8cf1461020a575b5f80fd5b348015610156575f80fd5b5061016a610165366004611b6b565b6104be565b60405190151581526020015b60405180910390f35b34801561018a575f80fd5b5061016a61051f565b34801561019e575f80fd5b506101b26101ad366004611bf3565b610533565b005b3480156101bf575f80fd5b506101b26101ce366004611c31565b610788565b3480156101de575f80fd5b506097546101f2906001600160a01b031681565b6040516001600160a01b039091168152602001610176565b348015610215575f80fd5b506101f2610224366004611c6b565b61084f565b348015610234575f80fd5b506101b2610863565b6101b261024b366004611ca8565b610877565b34801561025b575f80fd5b50610264610930565b604051908152602001610176565b34801561027d575f80fd5b5061016a60c954610100900460ff1660021490565b34801561029d575f80fd5b5061026461708081565b3480156102b2575f80fd5b506101b26109e1565b6102ce6102c9366004611d90565b6109f2565b6040516101769190611ee0565b3480156102e6575f80fd5b506101b2610c4b565b3480156102fa575f80fd5b506102646202000081565b348015610310575f80fd5b506101b2610cc2565b348015610324575f80fd5b506101f2610cd5565b348015610338575f80fd5b506033546001600160a01b03166101f2565b348015610355575f80fd5b506101f2610364366004611f2e565b610ce3565b348015610374575f80fd5b5060fd5460fe546103b9916001600160401b0380821692600160401b8304821692600160801b8104831692600160c01b90910481169160ff8116916101009091041686565b604080516001600160401b03978816815295871660208701529386169385019390935290841660608401521515608083015290911660a082015260c001610176565b348015610406575f80fd5b5061040f610cf8565b6040805182516001600160401b0316815260208084015163ffffffff16908201529181015162ffffff1690820152606001610176565b348015610450575f80fd5b5060c95461046a906201000090046001600160401b031681565b6040516001600160401b039091168152602001610176565b34801561048d575f80fd5b506065546001600160a01b03166101f2565b3480156104aa575f80fd5b506101b26104b9366004611c31565b610d3c565b5f6001825f01516001600160401b03161115806104e35750602082015163ffffffff16155b806104f55750604082015162ffffff16155b8061050b575062020000826040015162ffffff16115b1561051757505f919050565b506001919050565b5f600261052a610dad565b60ff1614905090565b5f54610100900460ff161580801561055157505f54600160ff909116105b8061056a5750303b15801561056a57505f5460ff166001145b6105d25760405162461bcd60e51b815260206004820152602e60248201527f496e697469616c697a61626c653a20636f6e747261637420697320616c72656160448201526d191e481a5b9a5d1a585b1a5e995960921b60648201526084015b60405180910390fd5b5f805460ff1916600117905580156105f3575f805461ff0019166101001790555b6105fd8484610dec565b5f610606610cf8565b9050610611816104be565b61064e5760405162461bcd60e51b815260206004820152600e60248201526d696e76616c696420636f6e66696760901b60448201526064016105c9565b60fd805467ffffffffffffffff60801b19426001600160401b03908116600160401b026fffffffffffffffffffffffffffffffff19909316439190911617821716600160801b179091555f80805260fb6020527fc88390e7e62175be0932452175b6a7222b6b094ab0ef984a5153c620345d89758581557fc88390e7e62175be0932452175b6a7222b6b094ab0ef984a5153c620345d897780546fffffffffffffffff000000000000000019169093179092556040517f68b82650828a9621868d09dc161400acbe189fa002e3fb7cf9dea5c2c6f928ee906107339087815260200190565b60405180910390a250508015610782575f805461ff0019169055604051600181527f7f26b83ff96e1f2b6a682f133852f6798a09c465da95921460cefb38474024989060200160405180910390a15b50505050565b6001600160a01b037f00000000000000000000000000000000000000000000000000000000000000001630036107d05760405162461bcd60e51b81526004016105c990611f5c565b7f00000000000000000000000000000000000000000000000000000000000000006001600160a01b0316610802610e2b565b6001600160a01b0316146108285760405162461bcd60e51b81526004016105c990611fa8565b61083181610e46565b604080515f8082526020820190925261084c91839190610e4e565b50565b5f61085b848484610fb8565b949350505050565b61086b6110a9565b610875335f611139565b565b6001600160a01b037f00000000000000000000000000000000000000000000000000000000000000001630036108bf5760405162461bcd60e51b81526004016105c990611f5c565b7f00000000000000000000000000000000000000000000000000000000000000006001600160a01b03166108f1610e2b565b6001600160a01b0316146109175760405162461bcd60e51b81526004016105c990611fa8565b61092082610e46565b61092c82826001610e4e565b5050565b5f306001600160a01b037f000000000000000000000000000000000000000000000000000000000000000016146109cf5760405162461bcd60e51b815260206004820152603860248201527f555550535570677261646561626c653a206d757374206e6f742062652063616c60448201527f6c6564207468726f7567682064656c656761746563616c6c000000000000000060648201526084016105c9565b505f8051602061229583398151915290565b6109e961113d565b6108755f611197565b606060026109fe610dad565b60ff1603610a1f5760405163dfc60d8560e01b815260040160405180910390fd5b610a2960026111b0565b610a3d60c954610100900460ff1660021490565b15610a5b5760405163bae6e2a960e01b815260040160405180910390fd5b8115610ab057838214610ab05760405162461bcd60e51b815260206004820152601860248201527f6d69736d61746368656420706172616d73206c656e677468000000000000000060448201526064016105c9565b836001600160401b03811115610ac857610ac8611abe565b604051908082528060200260200182016040528015610b0157816020015b610aee611a43565b815260200190600190039081610ae65790505b5090505f5b84811015610c40578215610bba57610b98868683818110610b2957610b29611ff4565b9050602002810190610b3b9190612008565b868685818110610b4d57610b4d611ff4565b9050602002810190610b5f9190612008565b8080601f0160208091040260200160405190810160405280939291908181526020018383808284375f920191909152506111f892505050565b828281518110610baa57610baa611ff4565b6020026020010181905250610c13565b610bf5868683818110610bcf57610bcf611ff4565b9050602002810190610be19190612008565b60405180602001604052805f8152506111f8565b828281518110610c0757610c07611ff4565b60200260200101819052505b610c1b61156d565b610c38576040516306b7162d60e51b815260040160405180910390fd5b600101610b06565b5061085b60016111b0565b60655433906001600160a01b03168114610cb95760405162461bcd60e51b815260206004820152602960248201527f4f776e61626c6532537465703a2063616c6c6572206973206e6f7420746865206044820152683732bb9037bbb732b960b91b60648201526084016105c9565b61084c81611197565b610cca61161a565b610875336001611139565b5f610cde610e2b565b905090565b5f610cef468484610fb8565b90505b92915050565b604080516060810182525f8082526020820181905291810191909152506040805160608101825262028c60815262e4e1c060208201526201d4c09181019190915290565b610d4461113d565b606580546001600160a01b0383166001600160a01b03199091168117909155610d756033546001600160a01b031690565b6001600160a01b03167f38d16b8cac22d99fc7c124b9cd0de2d3fa1faef420bfe791d8c362d765e2270060405160405180910390a350565b5f610db74661168b565b15610de257507fa5054f728453d3dbe953bdc43e4d0cb97e662ea32d7958190f3dc2da31d9721b5c90565b5060c95460ff1690565b806001600160a01b038116610e145760405163538ba4f960e01b815260040160405180910390fd5b610e1d836116b8565b610e2682611716565b505050565b5f80516020612295833981519152546001600160a01b031690565b61084c61113d565b7f4910fdfa16fed3260ed0e7147f7cc6da11a60208b5b9406d12a635614ffd91435460ff1615610e8157610e2683611786565b826001600160a01b03166352d1902d6040518163ffffffff1660e01b8152600401602060405180830381865afa925050508015610edb575060408051601f3d908101601f19168201909252610ed89181019061204a565b60015b610f3e5760405162461bcd60e51b815260206004820152602e60248201527f45524331393637557067726164653a206e657720696d706c656d656e7461746960448201526d6f6e206973206e6f74205555505360901b60648201526084016105c9565b5f805160206122958339815191528114610fac5760405162461bcd60e51b815260206004820152602960248201527f45524331393637557067726164653a20756e737570706f727465642070726f786044820152681a58589b195555525160ba1b60648201526084016105c9565b50610e26838383611821565b6097545f906001600160a01b031680610fe457604051638ed88b2560e01b815260040160405180910390fd5b604051630a3dc4f360e21b81526001600160401b0386166004820152602481018590526001600160a01b038216906328f713cc90604401602060405180830381865afa158015611036573d5f803e3d5ffd5b505050506040513d601f19601f8201168201806040525081019061105a9190612061565b91508215801561107157506001600160a01b038216155b156110a157604051632b0d65db60e01b81526001600160401b0386166004820152602481018590526044016105c9565b509392505050565b6110bd60c954610100900460ff1660021490565b6110da5760405163bae6e2a960e01b815260040160405180910390fd5b60c9805461010069ffffffffffffffffff001990911662010000426001600160401b031602171790556040513381527f5db9ee0a495bf2e6ff9c91a7834c1ba4fdd244a5e8aa4e537bd38aeae4b073aa906020015b60405180910390a1565b61092c5b6033546001600160a01b031633146108755760405162461bcd60e51b815260206004820181905260248201527f4f776e61626c653a2063616c6c6572206973206e6f7420746865206f776e657260448201526064016105c9565b606580546001600160a01b031916905561084c81611845565b6111b94661168b565b156111e457807fa5054f728453d3dbe953bdc43e4d0cb97e662ea32d7958190f3dc2da31d9721b5d50565b60c9805460ff831660ff1990911617905550565b611200611a43565b5f611209610cf8565b90506112178486018661207c565b915081610140015163ffffffff164082606001511461126f5760405162461bcd60e51b81526020600482015260146024820152730929cac82989288be9862be84989e86969082a6960631b60448201526064016105c9565b81515f036112b65760405162461bcd60e51b81526020600482015260146024820152730929cac82989288be9864be84989e86969082a6960631b60448201526064016105c9565b806020015163ffffffff1682610120015163ffffffff161461130e5760405162461bcd60e51b81526020600482015260116024820152701253959053125117d1d054d7d312535255607a1b60448201526064016105c9565b82516101c0830151151590151461135b5760405162461bcd60e51b81526020600482015260116024820152701253959053125117d09313d097d554d151607a1b60448201526064016105c9565b816101c00151156113d15762020000826101a0015162ffffff1683610180015162ffffff1661138a919061216b565b11156113cc5760405162461bcd60e51b8152602060048201526011602482015270696e76616c696420626c6f622073697a6560781b60448201526064016105c9565b6114c4565b8251602084012060a0830151146114205760405162461bcd60e51b81526020600482015260136024820152720929cac82989288bea8b09892a6a8be9082a69606b1b60448201526064016105c9565b61018082015162ffffff161561146f5760405162461bcd60e51b81526020600482015260146024820152731253959053125117d516131254d517d4d510549560621b60448201526064016105c9565b825162ffffff16826101a0015162ffffff16146114c45760405162461bcd60e51b8152602060048201526013602482015272494e56414c49445f54584c4953545f53495a4560681b60448201526064016105c9565b806040015162ffffff16826101a0015162ffffff16111561151d5760405162461bcd60e51b8152602060048201526013602482015272696e76616c69642074786c6973742073697a6560681b60448201526064016105c9565b8161010001516001600160401b03167fbd2c05d5badfa6f80444e5b9b03b37e46106355960c43e72567a05c323213972838560405161155d9291906121d7565b60405180910390a2509392505050565b5f8061158f7173657175656e6365725f726567697374727960701b6001610ce3565b90506001600160a01b038116156116125760405163061caba560e21b81523360048201526001600160a01b03821690631872ae94906024016020604051808303815f875af11580156115e3573d5f803e3d5ffd5b505050506040513d601f19601f820116820180604052508101906116079190612201565b611612575f91505090565b600191505090565b61162e60c954610100900460ff1660021490565b1561164c5760405163bae6e2a960e01b815260040160405180910390fd5b60c9805461ff0019166102001790556040513381527f62e78cea01bee320cd4e420270b5ea74000d11b0c9f74754ebdbfc544b05a2589060200161112f565b5f600182148061169c575061426882145b806116a9575062aa36a782145b80610cf25750610cf282611896565b5f54610100900460ff166116de5760405162461bcd60e51b81526004016105c99061221c565b6116e66118ad565b6117046001600160a01b038216156116fe5781611197565b33611197565b5060c9805461ff001916610100179055565b5f54610100900460ff1661173c5760405162461bcd60e51b81526004016105c99061221c565b6001600160401b034611156117645760405163a12e8fa960e01b815260040160405180910390fd5b609780546001600160a01b0319166001600160a01b0392909216919091179055565b6001600160a01b0381163b6117f35760405162461bcd60e51b815260206004820152602d60248201527f455243313936373a206e657720696d706c656d656e746174696f6e206973206e60448201526c1bdd08184818dbdb9d1c9858dd609a1b60648201526084016105c9565b5f8051602061229583398151915280546001600160a01b0319166001600160a01b0392909216919091179055565b61182a836118d3565b5f825111806118365750805b15610e26576107828383611912565b603380546001600160a01b038381166001600160a01b0319831681179093556040519116919082907f8be0079c531659141344cd1fd0a4f28419497f9722a3daafe3b4186f6b6457e0905f90a35050565b5f617e2c8210158015610cf2575050617e90101590565b5f54610100900460ff166108755760405162461bcd60e51b81526004016105c99061221c565b6118dc81611786565b6040516001600160a01b038216907fbc7cd75a20ee27fd9adebab32041f755214dbc6bffa90cc0225b39da2e5c2d3b905f90a250565b6060610cef83836040518060600160405280602781526020016122b56027913960605f80856001600160a01b03168560405161194e9190612267565b5f60405180830381855af49150503d805f8114611986576040519150601f19603f3d011682016040523d82523d5f602084013e61198b565b606091505b509150915061199c868383876119a6565b9695505050505050565b60608315611a145782515f03611a0d576001600160a01b0385163b611a0d5760405162461bcd60e51b815260206004820152601d60248201527f416464726573733a2063616c6c20746f206e6f6e2d636f6e747261637400000060448201526064016105c9565b508161085b565b61085b8383815115611a295781518083602001fd5b8060405162461bcd60e51b81526004016105c99190612282565b604080516101e0810182525f80825260208201819052918101829052606081018290526080810182905260a0810182905260c0810182905260e08101829052610100810182905261012081018290526101408101829052610160810182905261018081018290526101a081018290526101c081019190915290565b634e487b7160e01b5f52604160045260245ffd5b6040516101e081016001600160401b0381118282101715611af557611af5611abe565b60405290565b604051601f8201601f191681016001600160401b0381118282101715611b2357611b23611abe565b604052919050565b80356001600160401b0381168114611b41575f80fd5b919050565b803563ffffffff81168114611b41575f80fd5b803562ffffff81168114611b41575f80fd5b5f60608284031215611b7b575f80fd5b604051606081018181106001600160401b0382111715611b9d57611b9d611abe565b604052611ba983611b2b565b8152611bb760208401611b46565b6020820152611bc860408401611b59565b60408201529392505050565b6001600160a01b038116811461084c575f80fd5b8035611b4181611bd4565b5f805f60608486031215611c05575f80fd5b8335611c1081611bd4565b92506020840135611c2081611bd4565b929592945050506040919091013590565b5f60208284031215611c41575f80fd5b8135611c4c81611bd4565b9392505050565b801515811461084c575f80fd5b8035611b4181611c53565b5f805f60608486031215611c7d575f80fd5b611c8684611b2b565b9250602084013591506040840135611c9d81611c53565b809150509250925092565b5f8060408385031215611cb9575f80fd5b8235611cc481611bd4565b91506020838101356001600160401b0380821115611ce0575f80fd5b818601915086601f830112611cf3575f80fd5b813581811115611d0557611d05611abe565b611d17601f8201601f19168501611afb565b91508082528784828501011115611d2c575f80fd5b80848401858401375f848284010152508093505050509250929050565b5f8083601f840112611d59575f80fd5b5081356001600160401b03811115611d6f575f80fd5b6020830191508360208260051b8501011115611d89575f80fd5b9250929050565b5f805f8060408587031215611da3575f80fd5b84356001600160401b0380821115611db9575f80fd5b611dc588838901611d49565b90965094506020870135915080821115611ddd575f80fd5b50611dea87828801611d49565b95989497509550505050565b805182526020810151602083015260408101516040830152606081015160608301526080810151608083015260a081015160a083015260c081015160c083015260e0810151611e5060e08401826001600160a01b03169052565b50610100818101516001600160401b0381168483015250506101208181015163ffffffff81168483015250506101408181015163ffffffff8116848301525050610160818101516001600160401b0381168483015250506101808181015162ffffff81168483015250506101a08181015162ffffff81168483015250506101c08181015180151584830152610782565b602080825282518282018190525f9190848201906040850190845b81811015611f2257611f0e838551611df6565b928401926101e09290920191600101611efb565b50909695505050505050565b5f8060408385031215611f3f575f80fd5b823591506020830135611f5181611c53565b809150509250929050565b6020808252602c908201527f46756e6374696f6e206d7573742062652063616c6c6564207468726f7567682060408201526b19195b1959d85d1958d85b1b60a21b606082015260800190565b6020808252602c908201527f46756e6374696f6e206d7573742062652063616c6c6564207468726f7567682060408201526b6163746976652070726f787960a01b606082015260800190565b634e487b7160e01b5f52603260045260245ffd5b5f808335601e1984360301811261201d575f80fd5b8301803591506001600160401b03821115612036575f80fd5b602001915036819003821315611d89575f80fd5b5f6020828403121561205a575f80fd5b5051919050565b5f60208284031215612071575f80fd5b8151611c4c81611bd4565b5f6101e0828403121561208d575f80fd5b612095611ad2565b823581526020830135602082015260408301356040820152606083013560608201526080830135608082015260a083013560a082015260c083013560c08201526120e160e08401611be8565b60e08201526101006120f4818501611b2b565b90820152610120612106848201611b46565b90820152610140612118848201611b46565b9082015261016061212a848201611b2b565b9082015261018061213c848201611b59565b908201526101a061214e848201611b59565b908201526101c0612160848201611c60565b908201529392505050565b80820180821115610cf257634e487b7160e01b5f52601160045260245ffd5b5f5b838110156121a457818101518382015260200161218c565b50505f910152565b5f81518084526121c381602086016020860161218a565b601f01601f19169290920160200192915050565b5f6102006121e58386611df6565b806101e08401526121f8818401856121ac565b95945050505050565b5f60208284031215612211575f80fd5b8151611c4c81611c53565b6020808252602b908201527f496e697469616c697a61626c653a20636f6e7472616374206973206e6f74206960408201526a6e697469616c697a696e6760a81b606082015260800190565b5f825161227881846020870161218a565b9190910192915050565b602081525f610cef60208301846121ac56fe360894a13ba1a3210667c828492db98dca3e2076cc3735a920a3ca505d382bbc416464726573733a206c6f772d6c6576656c2064656c65676174652063616c6c206661696c6564a2646970667358221220ee1e2d5e19fd22ee86db42e3f8fe483b9471d6010437fee30198d9eebc69e46c64736f6c63430008180033","linkReferences":{}},"methodIdentifiers":{"MAX_BYTES_PER_BLOB()":"81e3925f","SECURITY_DELAY_AFTER_PROVEN()":"6b5ad7e0","acceptOwnership()":"79ba5097","addressManager()":"3ab76e9f","getConfig()":"c3f909d4","impl()":"8abf6077","inNonReentrant()":"3075db56","init(address,address,bytes32)":"347258aa","isConfigValid((uint64,uint32,uint24))":"10f3ab1b","lastUnpausedAt()":"e07baba6","owner()":"8da5cb5b","pause()":"8456cb59","paused()":"5c975abb","pendingOwner()":"e30c3978","proposeBlock(bytes[],bytes[])":"72b6347b","proxiableUUID()":"52d1902d","renounceOwnership()":"715018a6","resolve(bytes32,bool)":"a86f9d9e","resolve(uint64,bytes32,bool)":"3eb6b8cf","state()":"c19d93fb","transferOwnership(address)":"f2fde38b","unpause()":"3f4ba83a","upgradeTo(address)":"3659cfe6","upgradeToAndCall(address,bytes)":"4f1ef286"},"id":4}