{"abi":[{"type":"function","name":"MAX_BYTES_PER_BLOB","inputs":[],"outputs":[{"name":"","type":"uint256","internalType":"uint256"}],"stateMutability":"view"},{"type":"function","name":"SECURITY_DELAY_AFTER_PROVEN","inputs":[],"outputs":[{"name":"","type":"uint256","internalType":"uint256"}],"stateMutability":"view"},{"type":"function","name":"acceptOwnership","inputs":[],"outputs":[],"stateMutability":"nonpayable"},{"type":"function","name":"addressManager","inputs":[],"outputs":[{"name":"","type":"address","internalType":"address"}],"stateMutability":"view"},{"type":"function","name":"getConfig","inputs":[],"outputs":[{"name":"","type":"tuple","internalType":"struct TaikoData.Config","components":[{"name":"chainId","type":"uint64","internalType":"uint64"},{"name":"blockMaxGasLimit","type":"uint32","internalType":"uint32"},{"name":"blockMaxTxListBytes","type":"uint24","internalType":"uint24"}]}],"stateMutability":"view"},{"type":"function","name":"impl","inputs":[],"outputs":[{"name":"","type":"address","internalType":"address"}],"stateMutability":"view"},{"type":"function","name":"inNonReentrant","inputs":[],"outputs":[{"name":"","type":"bool","internalType":"bool"}],"stateMutability":"view"},{"type":"function","name":"init","inputs":[{"name":"_owner","type":"address","internalType":"address"},{"name":"_addressManager","type":"address","internalType":"address"},{"name":"_genesisBlockHash","type":"bytes32","internalType":"bytes32"}],"outputs":[],"stateMutability":"nonpayable"},{"type":"function","name":"isConfigValid","inputs":[{"name":"config","type":"tuple","internalType":"struct TaikoData.Config","components":[{"name":"chainId","type":"uint64","internalType":"uint64"},{"name":"blockMaxGasLimit","type":"uint32","internalType":"uint32"},{"name":"blockMaxTxListBytes","type":"uint24","internalType":"uint24"}]}],"outputs":[{"name":"","type":"bool","internalType":"bool"}],"stateMutability":"pure"},{"type":"function","name":"lastUnpausedAt","inputs":[],"outputs":[{"name":"","type":"uint64","internalType":"uint64"}],"stateMutability":"view"},{"type":"function","name":"owner","inputs":[],"outputs":[{"name":"","type":"address","internalType":"address"}],"stateMutability":"view"},{"type":"function","name":"pause","inputs":[],"outputs":[],"stateMutability":"nonpayable"},{"type":"function","name":"paused","inputs":[],"outputs":[{"name":"","type":"bool","internalType":"bool"}],"stateMutability":"view"},{"type":"function","name":"pendingOwner","inputs":[],"outputs":[{"name":"","type":"address","internalType":"address"}],"stateMutability":"view"},{"type":"function","name":"proposeBlock","inputs":[{"name":"data","type":"tuple[]","internalType":"struct TaikoData.BlockMetadata[]","components":[{"name":"blockHash","type":"bytes32","internalType":"bytes32"},{"name":"parentBlockHash","type":"bytes32","internalType":"bytes32"},{"name":"parentMetaHash","type":"bytes32","internalType":"bytes32"},{"name":"l1Hash","type":"bytes32","internalType":"bytes32"},{"name":"difficulty","type":"uint256","internalType":"uint256"},{"name":"blobHash","type":"bytes32","internalType":"bytes32"},{"name":"extraData","type":"bytes32","internalType":"bytes32"},{"name":"coinbase","type":"address","internalType":"address"},{"name":"l2BlockNumber","type":"uint64","internalType":"uint64"},{"name":"gasLimit","type":"uint32","internalType":"uint32"},{"name":"l1StateBlockNumber","type":"uint32","internalType":"uint32"},{"name":"timestamp","type":"uint64","internalType":"uint64"},{"name":"txListByteOffset","type":"uint24","internalType":"uint24"},{"name":"txListByteSize","type":"uint24","internalType":"uint24"},{"name":"blobUsed","type":"bool","internalType":"bool"},{"name":"txList","type":"bytes","internalType":"bytes"}]}],"outputs":[{"name":"_blocks","type":"tuple[]","internalType":"struct TaikoData.BlockMetadata[]","components":[{"name":"blockHash","type":"bytes32","internalType":"bytes32"},{"name":"parentBlockHash","type":"bytes32","internalType":"bytes32"},{"name":"parentMetaHash","type":"bytes32","internalType":"bytes32"},{"name":"l1Hash","type":"bytes32","internalType":"bytes32"},{"name":"difficulty","type":"uint256","internalType":"uint256"},{"name":"blobHash","type":"bytes32","internalType":"bytes32"},{"name":"extraData","type":"bytes32","internalType":"bytes32"},{"name":"coinbase","type":"address","internalType":"address"},{"name":"l2BlockNumber","type":"uint64","internalType":"uint64"},{"name":"gasLimit","type":"uint32","internalType":"uint32"},{"name":"l1StateBlockNumber","type":"uint32","internalType":"uint32"},{"name":"timestamp","type":"uint64","internalType":"uint64"},{"name":"txListByteOffset","type":"uint24","internalType":"uint24"},{"name":"txListByteSize","type":"uint24","internalType":"uint24"},{"name":"blobUsed","type":"bool","internalType":"bool"},{"name":"txList","type":"bytes","internalType":"bytes"}]}],"stateMutability":"payable"},{"type":"function","name":"proxiableUUID","inputs":[],"outputs":[{"name":"","type":"bytes32","internalType":"bytes32"}],"stateMutability":"view"},{"type":"function","name":"renounceOwnership","inputs":[],"outputs":[],"stateMutability":"nonpayable"},{"type":"function","name":"resolve","inputs":[{"name":"_chainId","type":"uint64","internalType":"uint64"},{"name":"_name","type":"bytes32","internalType":"bytes32"},{"name":"_allowZeroAddress","type":"bool","internalType":"bool"}],"outputs":[{"name":"","type":"address","internalType":"address payable"}],"stateMutability":"view"},{"type":"function","name":"resolve","inputs":[{"name":"_name","type":"bytes32","internalType":"bytes32"},{"name":"_allowZeroAddress","type":"bool","internalType":"bool"}],"outputs":[{"name":"","type":"address","internalType":"address payable"}],"stateMutability":"view"},{"type":"function","name":"state","inputs":[],"outputs":[{"name":"genesisHeight","type":"uint64","internalType":"uint64"},{"name":"genesisTimestamp","type":"uint64","internalType":"uint64"},{"name":"numBlocks","type":"uint64","internalType":"uint64"},{"name":"lastVerifiedBlockId","type":"uint64","internalType":"uint64"},{"name":"provingPaused","type":"bool","internalType":"bool"},{"name":"lastUnpausedAt","type":"uint64","internalType":"uint64"}],"stateMutability":"view"},{"type":"function","name":"transferOwnership","inputs":[{"name":"newOwner","type":"address","internalType":"address"}],"outputs":[],"stateMutability":"nonpayable"},{"type":"function","name":"unpause","inputs":[],"outputs":[],"stateMutability":"nonpayable"},{"type":"function","name":"upgradeTo","inputs":[{"name":"newImplementation","type":"address","internalType":"address"}],"outputs":[],"stateMutability":"nonpayable"},{"type":"function","name":"upgradeToAndCall","inputs":[{"name":"newImplementation","type":"address","internalType":"address"},{"name":"data","type":"bytes","internalType":"bytes"}],"outputs":[],"stateMutability":"payable"},{"type":"event","name":"AdminChanged","inputs":[{"name":"previousAdmin","type":"address","indexed":false,"internalType":"address"},{"name":"newAdmin","type":"address","indexed":false,"internalType":"address"}],"anonymous":false},{"type":"event","name":"BeaconUpgraded","inputs":[{"name":"beacon","type":"address","indexed":true,"internalType":"address"}],"anonymous":false},{"type":"event","name":"BlockProposed","inputs":[{"name":"blockId","type":"uint256","indexed":true,"internalType":"uint256"},{"name":"meta","type":"tuple","indexed":false,"internalType":"struct TaikoData.BlockMetadata","components":[{"name":"blockHash","type":"bytes32","internalType":"bytes32"},{"name":"parentBlockHash","type":"bytes32","internalType":"bytes32"},{"name":"parentMetaHash","type":"bytes32","internalType":"bytes32"},{"name":"l1Hash","type":"bytes32","internalType":"bytes32"},{"name":"difficulty","type":"uint256","internalType":"uint256"},{"name":"blobHash","type":"bytes32","internalType":"bytes32"},{"name":"extraData","type":"bytes32","internalType":"bytes32"},{"name":"coinbase","type":"address","internalType":"address"},{"name":"l2BlockNumber","type":"uint64","internalType":"uint64"},{"name":"gasLimit","type":"uint32","internalType":"uint32"},{"name":"l1StateBlockNumber","type":"uint32","internalType":"uint32"},{"name":"timestamp","type":"uint64","internalType":"uint64"},{"name":"txListByteOffset","type":"uint24","internalType":"uint24"},{"name":"txListByteSize","type":"uint24","internalType":"uint24"},{"name":"blobUsed","type":"bool","internalType":"bool"},{"name":"txList","type":"bytes","internalType":"bytes"}]}],"anonymous":false},{"type":"event","name":"BlockVerified","inputs":[{"name":"blockId","type":"uint256","indexed":true,"internalType":"uint256"},{"name":"blockHash","type":"bytes32","indexed":false,"internalType":"bytes32"}],"anonymous":false},{"type":"event","name":"Initialized","inputs":[{"name":"version","type":"uint8","indexed":false,"internalType":"uint8"}],"anonymous":false},{"type":"event","name":"OwnershipTransferStarted","inputs":[{"name":"previousOwner","type":"address","indexed":true,"internalType":"address"},{"name":"newOwner","type":"address","indexed":true,"internalType":"address"}],"anonymous":false},{"type":"event","name":"OwnershipTransferred","inputs":[{"name":"previousOwner","type":"address","indexed":true,"internalType":"address"},{"name":"newOwner","type":"address","indexed":true,"internalType":"address"}],"anonymous":false},{"type":"event","name":"Paused","inputs":[{"name":"account","type":"address","indexed":false,"internalType":"address"}],"anonymous":false},{"type":"event","name":"ProvingPaused","inputs":[{"name":"paused","type":"bool","indexed":false,"internalType":"bool"}],"anonymous":false},{"type":"event","name":"TransitionProved","inputs":[{"name":"blockId","type":"uint256","indexed":true,"internalType":"uint256"},{"name":"tran","type":"tuple","indexed":false,"internalType":"struct TaikoData.Transition","components":[{"name":"parentBlockHash","type":"bytes32","internalType":"bytes32"},{"name":"blockHash","type":"bytes32","internalType":"bytes32"}]},{"name":"prover","type":"address","indexed":false,"internalType":"address"}],"anonymous":false},{"type":"event","name":"Unpaused","inputs":[{"name":"account","type":"address","indexed":false,"internalType":"address"}],"anonymous":false},{"type":"event","name":"Upgraded","inputs":[{"name":"implementation","type":"address","indexed":true,"internalType":"address"}],"anonymous":false},{"type":"error","name":"FUNC_NOT_IMPLEMENTED","inputs":[]},{"type":"error","name":"INVALID_PAUSE_STATUS","inputs":[]},{"type":"error","name":"L1_ALREADY_CONTESTED","inputs":[]},{"type":"error","name":"L1_ALREADY_PROVED","inputs":[]},{"type":"error","name":"L1_ASSIGNED_PROVER_NOT_ALLOWED","inputs":[]},{"type":"error","name":"L1_BLOB_FOR_DA_DISABLED","inputs":[]},{"type":"error","name":"L1_BLOB_NOT_FOUND","inputs":[]},{"type":"error","name":"L1_BLOB_NOT_REUSEABLE","inputs":[]},{"type":"error","name":"L1_BLOCK_MISMATCH","inputs":[]},{"type":"error","name":"L1_INCORRECT_BLOCK","inputs":[]},{"type":"error","name":"L1_INSUFFICIENT_TOKEN","inputs":[]},{"type":"error","name":"L1_INVALID_ADDRESS","inputs":[]},{"type":"error","name":"L1_INVALID_AMOUNT","inputs":[]},{"type":"error","name":"L1_INVALID_BLOCK_ID","inputs":[]},{"type":"error","name":"L1_INVALID_CONFIG","inputs":[]},{"type":"error","name":"L1_INVALID_ETH_DEPOSIT","inputs":[]},{"type":"error","name":"L1_INVALID_L1_STATE_BLOCK","inputs":[]},{"type":"error","name":"L1_INVALID_OR_DUPLICATE_VERIFIER","inputs":[]},{"type":"error","name":"L1_INVALID_PARAM","inputs":[]},{"type":"error","name":"L1_INVALID_PAUSE_STATUS","inputs":[]},{"type":"error","name":"L1_INVALID_PROOF","inputs":[]},{"type":"error","name":"L1_INVALID_PROPOSER","inputs":[]},{"type":"error","name":"L1_INVALID_PROVER","inputs":[]},{"type":"error","name":"L1_INVALID_TIER","inputs":[]},{"type":"error","name":"L1_INVALID_TIMESTAMP","inputs":[]},{"type":"error","name":"L1_INVALID_TRANSITION","inputs":[]},{"type":"error","name":"L1_LIVENESS_BOND_NOT_RECEIVED","inputs":[]},{"type":"error","name":"L1_NOT_ASSIGNED_PROVER","inputs":[]},{"type":"error","name":"L1_PROPOSER_NOT_EOA","inputs":[]},{"type":"error","name":"L1_PROVING_PAUSED","inputs":[]},{"type":"error","name":"L1_RECEIVE_DISABLED","inputs":[]},{"type":"error","name":"L1_TOO_MANY_BLOCKS","inputs":[]},{"type":"error","name":"L1_TOO_MANY_TIERS","inputs":[]},{"type":"error","name":"L1_TRANSITION_ID_ZERO","inputs":[]},{"type":"error","name":"L1_TRANSITION_NOT_FOUND","inputs":[]},{"type":"error","name":"L1_TXLIST_OFFSET_SIZE","inputs":[]},{"type":"error","name":"L1_TXLIST_TOO_LARGE","inputs":[]},{"type":"error","name":"L1_UNAUTHORIZED","inputs":[]},{"type":"error","name":"L1_UNEXPECTED_PARENT","inputs":[]},{"type":"error","name":"L1_UNEXPECTED_TRANSITION_ID","inputs":[]},{"type":"error","name":"L1_UNEXPECTED_TRANSITION_TIER","inputs":[]},{"type":"error","name":"REENTRANT_CALL","inputs":[]},{"type":"error","name":"RESOLVER_DENIED","inputs":[]},{"type":"error","name":"RESOLVER_INVALID_MANAGER","inputs":[]},{"type":"error","name":"RESOLVER_UNEXPECTED_CHAINID","inputs":[]},{"type":"error","name":"RESOLVER_ZERO_ADDR","inputs":[{"name":"chainId","type":"uint64","internalType":"uint64"},{"name":"name","type":"bytes32","internalType":"bytes32"}]},{"type":"error","name":"ZERO_ADDRESS","inputs":[]},{"type":"error","name":"ZERO_VALUE","inputs":[]}],"bytecode":{"object":"0x60a06040523060805234801562000014575f80fd5b506200001f6200002f565b620000296200002f565b620000ed565b5f54610100900460ff16156200009b5760405162461bcd60e51b815260206004820152602760248201527f496e697469616c697a61626c653a20636f6e747261637420697320696e697469604482015266616c697a696e6760c81b606482015260840160405180910390fd5b5f5460ff90811614620000eb575f805460ff191660ff9081179091556040519081527f7f26b83ff96e1f2b6a682f133852f6798a09c465da95921460cefb38474024989060200160405180910390a15b565b608051611f12620001225f395f8181610792015281816107d201528181610881015281816108c1015261093c0152611f125ff3fe608060405260043610610147575f3560e01c806379ba5097116100b3578063c19d93fb1161006d578063c19d93fb14610349578063c3f909d4146103db578063e07baba614610425578063e2faea2b14610462578063e30c397814610482578063f2fde38b1461049f575f80fd5b806379ba5097146102bb57806381e3925f146102cf5780638456cb59146102e55780638abf6077146102f95780638da5cb5b1461030d578063a86f9d9e1461032a575f80fd5b80633f4ba83a116101045780633f4ba83a146102295780634f1ef2861461023d57806352d1902d146102505780635c975abb146102725780636b5ad7e014610292578063715018a6146102a7575f80fd5b806310f3ab1b1461014b5780633075db561461017f578063347258aa146101935780633659cfe6146101b45780633ab76e9f146101d35780633eb6b8cf1461020a575b5f80fd5b348015610156575f80fd5b5061016a610165366004611588565b6104be565b60405190151581526020015b60405180910390f35b34801561018a575f80fd5b5061016a61051f565b34801561019e575f80fd5b506101b26101ad366004611610565b610533565b005b3480156101bf575f80fd5b506101b26101ce36600461164e565b610788565b3480156101de575f80fd5b506097546101f2906001600160a01b031681565b6040516001600160a01b039091168152602001610176565b348015610215575f80fd5b506101f261022436600461167f565b61084f565b348015610234575f80fd5b506101b2610863565b6101b261024b366004611723565b610877565b34801561025b575f80fd5b50610264610930565b604051908152602001610176565b34801561027d575f80fd5b5061016a60c954610100900460ff1660021490565b34801561029d575f80fd5b5061026461708081565b3480156102b2575f80fd5b506101b26109e1565b3480156102c6575f80fd5b506101b26109f2565b3480156102da575f80fd5b506102646202000081565b3480156102f0575f80fd5b506101b2610a69565b348015610304575f80fd5b506101f2610a7c565b348015610318575f80fd5b506033546001600160a01b03166101f2565b348015610335575f80fd5b506101f261034436600461176f565b610a8a565b348015610354575f80fd5b5060fd5460fe54610399916001600160401b0380821692600160401b8304821692600160801b8104831692600160c01b90910481169160ff8116916101009091041686565b604080516001600160401b03978816815295871660208701529386169385019390935290841660608401521515608083015290911660a082015260c001610176565b3480156103e6575f80fd5b506103ef610a9f565b6040805182516001600160401b0316815260208084015163ffffffff16908201529181015162ffffff1690820152606001610176565b348015610430575f80fd5b5060c95461044a906201000090046001600160401b031681565b6040516001600160401b039091168152602001610176565b610475610470366004611799565b610ae3565b6040516101769190611854565b34801561048d575f80fd5b506065546001600160a01b03166101f2565b3480156104aa575f80fd5b506101b26104b936600461164e565b610ba1565b5f6001825f01516001600160401b03161115806104e35750602082015163ffffffff16155b806104f55750604082015162ffffff16155b8061050b575062020000826040015162ffffff16115b1561051757505f919050565b506001919050565b5f600261052a610c12565b60ff1614905090565b5f54610100900460ff161580801561055157505f54600160ff909116105b8061056a5750303b15801561056a57505f5460ff166001145b6105d25760405162461bcd60e51b815260206004820152602e60248201527f496e697469616c697a61626c653a20636f6e747261637420697320616c72656160448201526d191e481a5b9a5d1a585b1a5e995960921b60648201526084015b60405180910390fd5b5f805460ff1916600117905580156105f3575f805461ff0019166101001790555b6105fd8484610c51565b5f610606610a9f565b9050610611816104be565b61064e5760405162461bcd60e51b815260206004820152600e60248201526d696e76616c696420636f6e66696760901b60448201526064016105c9565b60fd805467ffffffffffffffff60801b19426001600160401b03908116600160401b026fffffffffffffffffffffffffffffffff19909316439190911617821716600160801b179091555f80805260fb6020527fc88390e7e62175be0932452175b6a7222b6b094ab0ef984a5153c620345d89758581557fc88390e7e62175be0932452175b6a7222b6b094ab0ef984a5153c620345d897780546fffffffffffffffff000000000000000019169093179092556040517f68b82650828a9621868d09dc161400acbe189fa002e3fb7cf9dea5c2c6f928ee906107339087815260200190565b60405180910390a250508015610782575f805461ff0019169055604051600181527f7f26b83ff96e1f2b6a682f133852f6798a09c465da95921460cefb38474024989060200160405180910390a15b50505050565b6001600160a01b037f00000000000000000000000000000000000000000000000000000000000000001630036107d05760405162461bcd60e51b81526004016105c990611997565b7f00000000000000000000000000000000000000000000000000000000000000006001600160a01b0316610802610c90565b6001600160a01b0316146108285760405162461bcd60e51b81526004016105c9906119e3565b61083181610cab565b604080515f8082526020820190925261084c91839190610cb3565b50565b5f61085b848484610e1d565b949350505050565b61086b610f0e565b610875335f610f9e565b565b6001600160a01b037f00000000000000000000000000000000000000000000000000000000000000001630036108bf5760405162461bcd60e51b81526004016105c990611997565b7f00000000000000000000000000000000000000000000000000000000000000006001600160a01b03166108f1610c90565b6001600160a01b0316146109175760405162461bcd60e51b81526004016105c9906119e3565b61092082610cab565b61092c82826001610cb3565b5050565b5f306001600160a01b037f000000000000000000000000000000000000000000000000000000000000000016146109cf5760405162461bcd60e51b815260206004820152603860248201527f555550535570677261646561626c653a206d757374206e6f742062652063616c60448201527f6c6564207468726f7567682064656c656761746563616c6c000000000000000060648201526084016105c9565b505f80516020611e9683398151915290565b6109e9610fa2565b6108755f610ffc565b60655433906001600160a01b03168114610a605760405162461bcd60e51b815260206004820152602960248201527f4f776e61626c6532537465703a2063616c6c6572206973206e6f7420746865206044820152683732bb9037bbb732b960b91b60648201526084016105c9565b61084c81610ffc565b610a71611015565b610875336001610f9e565b5f610a85610c90565b905090565b5f610a96468484610e1d565b90505b92915050565b604080516060810182525f8082526020820181905291810191909152506040805160608101825262028c60815262e4e1c060208201526201d4c09181019190915290565b60606002610aef610c12565b60ff1603610b105760405163dfc60d8560e01b815260040160405180910390fd5b610b1a6002611086565b610b2e60c954610100900460ff1660021490565b15610b4c5760405163bae6e2a960e01b815260040160405180910390fd5b5f5b82811015610b8a57610b82848483818110610b6b57610b6b611a2f565b9050602002810190610b7d9190611a43565b6110ce565b600101610b4e565b50610b958284611a62565b9050610a996001611086565b610ba9610fa2565b606580546001600160a01b0383166001600160a01b03199091168117909155610bda6033546001600160a01b031690565b6001600160a01b03167f38d16b8cac22d99fc7c124b9cd0de2d3fa1faef420bfe791d8c362d765e2270060405160405180910390a350565b5f610c1c46611123565b15610c4757507fa5054f728453d3dbe953bdc43e4d0cb97e662ea32d7958190f3dc2da31d9721b5c90565b5060c95460ff1690565b806001600160a01b038116610c795760405163538ba4f960e01b815260040160405180910390fd5b610c8283611150565b610c8b826111ae565b505050565b5f80516020611e96833981519152546001600160a01b031690565b61084c610fa2565b7f4910fdfa16fed3260ed0e7147f7cc6da11a60208b5b9406d12a635614ffd91435460ff1615610ce657610c8b8361121e565b826001600160a01b03166352d1902d6040518163ffffffff1660e01b8152600401602060405180830381865afa925050508015610d40575060408051601f3d908101601f19168201909252610d3d91810190611be4565b60015b610da35760405162461bcd60e51b815260206004820152602e60248201527f45524331393637557067726164653a206e657720696d706c656d656e7461746960448201526d6f6e206973206e6f74205555505360901b60648201526084016105c9565b5f80516020611e968339815191528114610e115760405162461bcd60e51b815260206004820152602960248201527f45524331393637557067726164653a20756e737570706f727465642070726f786044820152681a58589b195555525160ba1b60648201526084016105c9565b50610c8b8383836112b9565b6097545f906001600160a01b031680610e4957604051638ed88b2560e01b815260040160405180910390fd5b604051630a3dc4f360e21b81526001600160401b0386166004820152602481018590526001600160a01b038216906328f713cc90604401602060405180830381865afa158015610e9b573d5f803e3d5ffd5b505050506040513d601f19601f82011682018060405250810190610ebf9190611bfb565b915082158015610ed657506001600160a01b038216155b15610f0657604051632b0d65db60e01b81526001600160401b0386166004820152602481018590526044016105c9565b509392505050565b610f2260c954610100900460ff1660021490565b610f3f5760405163bae6e2a960e01b815260040160405180910390fd5b60c9805461010069ffffffffffffffffff001990911662010000426001600160401b031602171790556040513381527f5db9ee0a495bf2e6ff9c91a7834c1ba4fdd244a5e8aa4e537bd38aeae4b073aa906020015b60405180910390a1565b61092c5b6033546001600160a01b031633146108755760405162461bcd60e51b815260206004820181905260248201527f4f776e61626c653a2063616c6c6572206973206e6f7420746865206f776e657260448201526064016105c9565b606580546001600160a01b031916905561084c816112dd565b61102960c954610100900460ff1660021490565b156110475760405163bae6e2a960e01b815260040160405180910390fd5b60c9805461ff0019166102001790556040513381527f62e78cea01bee320cd4e420270b5ea74000d11b0c9f74754ebdbfc544b05a25890602001610f94565b61108f46611123565b156110ba57807fa5054f728453d3dbe953bdc43e4d0cb97e662ea32d7958190f3dc2da31d9721b5d50565b60c9805460ff831660ff1990911617905550565b6110e061012082016101008301611c16565b6001600160401b03167f7e1269cdb1d669874acd6278ef79b41aabcc28ca4db9a0ef9f5a2f79a03d21f2826040516111189190611c9f565b60405180910390a250565b5f6001821480611134575061426882145b80611141575062aa36a782145b80610a995750610a998261132e565b5f54610100900460ff166111765760405162461bcd60e51b81526004016105c990611e27565b61117e611345565b61119c6001600160a01b038216156111965781610ffc565b33610ffc565b5060c9805461ff001916610100179055565b5f54610100900460ff166111d45760405162461bcd60e51b81526004016105c990611e27565b6001600160401b034611156111fc5760405163a12e8fa960e01b815260040160405180910390fd5b609780546001600160a01b0319166001600160a01b0392909216919091179055565b6001600160a01b0381163b61128b5760405162461bcd60e51b815260206004820152602d60248201527f455243313936373a206e657720696d706c656d656e746174696f6e206973206e60448201526c1bdd08184818dbdb9d1c9858dd609a1b60648201526084016105c9565b5f80516020611e9683398151915280546001600160a01b0319166001600160a01b0392909216919091179055565b6112c28361136b565b5f825111806112ce5750805b15610c8b5761078283836113aa565b603380546001600160a01b038381166001600160a01b0319831681179093556040519116919082907f8be0079c531659141344cd1fd0a4f28419497f9722a3daafe3b4186f6b6457e0905f90a35050565b5f617e2c8210158015610a99575050617e90101590565b5f54610100900460ff166108755760405162461bcd60e51b81526004016105c990611e27565b6113748161121e565b6040516001600160a01b038216907fbc7cd75a20ee27fd9adebab32041f755214dbc6bffa90cc0225b39da2e5c2d3b905f90a250565b6060610a968383604051806060016040528060278152602001611eb66027913960605f80856001600160a01b0316856040516113e69190611e72565b5f60405180830381855af49150503d805f811461141e576040519150601f19603f3d011682016040523d82523d5f602084013e611423565b606091505b50915091506114348683838761143e565b9695505050505050565b606083156114ac5782515f036114a5576001600160a01b0385163b6114a55760405162461bcd60e51b815260206004820152601d60248201527f416464726573733a2063616c6c20746f206e6f6e2d636f6e747261637400000060448201526064016105c9565b508161085b565b61085b83838151156114c15781518083602001fd5b8060405162461bcd60e51b81526004016105c99190611e83565b634e487b7160e01b5f52604160045260245ffd5b60405161020081016001600160401b0381118282101715611512576115126114db565b60405290565b604051601f8201601f191681016001600160401b0381118282101715611540576115406114db565b604052919050565b80356001600160401b038116811461155e575f80fd5b919050565b803563ffffffff8116811461155e575f80fd5b803562ffffff8116811461155e575f80fd5b5f60608284031215611598575f80fd5b604051606081018181106001600160401b03821117156115ba576115ba6114db565b6040526115c683611548565b81526115d460208401611563565b60208201526115e560408401611576565b60408201529392505050565b6001600160a01b038116811461084c575f80fd5b803561155e816115f1565b5f805f60608486031215611622575f80fd5b833561162d816115f1565b9250602084013561163d816115f1565b929592945050506040919091013590565b5f6020828403121561165e575f80fd5b8135611669816115f1565b9392505050565b8035801515811461155e575f80fd5b5f805f60608486031215611691575f80fd5b61169a84611548565b9250602084013591506116af60408501611670565b90509250925092565b5f82601f8301126116c7575f80fd5b81356001600160401b038111156116e0576116e06114db565b6116f3601f8201601f1916602001611518565b818152846020838601011115611707575f80fd5b816020850160208301375f918101602001919091529392505050565b5f8060408385031215611734575f80fd5b823561173f816115f1565b915060208301356001600160401b03811115611759575f80fd5b611765858286016116b8565b9150509250929050565b5f8060408385031215611780575f80fd5b8235915061179060208401611670565b90509250929050565b5f80602083850312156117aa575f80fd5b82356001600160401b03808211156117c0575f80fd5b818501915085601f8301126117d3575f80fd5b8135818111156117e1575f80fd5b8660208260051b85010111156117f5575f80fd5b60209290920196919550909350505050565b5f5b83811015611821578181015183820152602001611809565b50505f910152565b5f8151808452611840816020860160208601611807565b601f01601f19169290920160200192915050565b5f60208083018184528085518083526040925060408601915060408160051b8701018488015f5b8381101561198957888303603f1901855281518051845287810151888501528681015187850152606080820151908501526080808201519085015260a0808201519085015260c0808201519085015260e0808201516001600160a01b031690850152610100808201516001600160401b03908116918601919091526101208083015163ffffffff90811691870191909152610140808401519091169086015261016080830151909116908501526101808082015162ffffff908116918601919091526101a080830151909116908501526101c0808201511515908501526101e0908101516102009185018290529061197581860183611829565b96890196945050509086019060010161187b565b509098975050505050505050565b6020808252602c908201527f46756e6374696f6e206d7573742062652063616c6c6564207468726f7567682060408201526b19195b1959d85d1958d85b1b60a21b606082015260800190565b6020808252602c908201527f46756e6374696f6e206d7573742062652063616c6c6564207468726f7567682060408201526b6163746976652070726f787960a01b606082015260800190565b634e487b7160e01b5f52603260045260245ffd5b5f82356101fe19833603018112611a58575f80fd5b9190910192915050565b5f6001600160401b0380841115611a7b57611a7b6114db565b8360051b6020611a8c818301611518565b868152918501918181019036841115611aa3575f80fd5b865b84811015611bd857803586811115611abb575f80fd5b8801610200368290031215611ace575f80fd5b611ad66114ef565b81358152858201358682015260408083013590820152606080830135908201526080808301359082015260a0808301359082015260c0808301359082015260e0611b21818401611605565b90820152610100611b33838201611548565b90820152610120611b45838201611563565b90820152610140611b57838201611563565b90820152610160611b69838201611548565b90820152610180611b7b838201611576565b908201526101a0611b8d838201611576565b908201526101c0611b9f838201611670565b908201526101e08281013589811115611bb6575f80fd5b611bc2368286016116b8565b9183019190915250845250918301918301611aa5565b50979650505050505050565b5f60208284031215611bf4575f80fd5b5051919050565b5f60208284031215611c0b575f80fd5b8151611669816115f1565b5f60208284031215611c26575f80fd5b610a9682611548565b5f808335601e19843603018112611c44575f80fd5b83016020810192503590506001600160401b03811115611c62575f80fd5b803603821315611c70575f80fd5b9250929050565b81835281816020850137505f828201602090810191909152601f909101601f19169091010190565b6020815281356020820152602082013560408201526040820135606082015260608201356080820152608082013560a082015260a082013560c082015260c082013560e08201525f611cf360e08401611605565b610100611d0a818501836001600160a01b03169052565b611d15818601611548565b915050610120611d2f818501836001600160401b03169052565b611d3a818601611563565b915050610140611d518185018363ffffffff169052565b611d5c818601611563565b915050610160611d738185018363ffffffff169052565b611d7e818601611548565b915050610180611d98818501836001600160401b03169052565b611da3818601611576565b9150506101a0611db98185018362ffffff169052565b611dc4818601611576565b9150506101c0611dda8185018362ffffff169052565b611de5818601611670565b9150506101e0611df88185018315159052565b611e0481860186611c2f565b6102008681015292509050611e1e61022085018383611c77565b95945050505050565b6020808252602b908201527f496e697469616c697a61626c653a20636f6e7472616374206973206e6f74206960408201526a6e697469616c697a696e6760a81b606082015260800190565b5f8251611a58818460208701611807565b602081525f610a96602083018461182956fe360894a13ba1a3210667c828492db98dca3e2076cc3735a920a3ca505d382bbc416464726573733a206c6f772d6c6576656c2064656c65676174652063616c6c206661696c6564a2646970667358221220d413d52573e5063a20f64e31ccd5b89a452f140b7a06fa70bba6eda2988c5fec64736f6c63430008180033","linkReferences":{}},"methodIdentifiers":{"MAX_BYTES_PER_BLOB()":"81e3925f","SECURITY_DELAY_AFTER_PROVEN()":"6b5ad7e0","acceptOwnership()":"79ba5097","addressManager()":"3ab76e9f","getConfig()":"c3f909d4","impl()":"8abf6077","inNonReentrant()":"3075db56","init(address,address,bytes32)":"347258aa","isConfigValid((uint64,uint32,uint24))":"10f3ab1b","lastUnpausedAt()":"e07baba6","owner()":"8da5cb5b","pause()":"8456cb59","paused()":"5c975abb","pendingOwner()":"e30c3978","proposeBlock((bytes32,bytes32,bytes32,bytes32,uint256,bytes32,bytes32,address,uint64,uint32,uint32,uint64,uint24,uint24,bool,bytes)[])":"e2faea2b","proxiableUUID()":"52d1902d","renounceOwnership()":"715018a6","resolve(bytes32,bool)":"a86f9d9e","resolve(uint64,bytes32,bool)":"3eb6b8cf","state()":"c19d93fb","transferOwnership(address)":"f2fde38b","unpause()":"3f4ba83a","upgradeTo(address)":"3659cfe6","upgradeToAndCall(address,bytes)":"4f1ef286"},"id":5}